{
    "contractName": "Escrow",
    "abi": [
        {
            "inputs": [
                {
                    "internalType": "address",
                    "name": "_lender",
                    "type": "address"
                },
                {
                    "internalType": "address",
                    "name": "_inspector",
                    "type": "address"
                },
                {
                    "internalType": "address payable",
                    "name": "_seller",
                    "type": "address"
                },
                {
                    "internalType": "address",
                    "name": "_nftAddress",
                    "type": "address"
                }
            ],
            "stateMutability": "nonpayable",
            "type": "constructor"
        },
        {
            "inputs": [
                {
                    "internalType": "string",
                    "name": "message",
                    "type": "string"
                }
            ],
            "name": "Escrow__NotEnoughDeposit",
            "type": "error"
        },
        {
            "inputs": [
                {
                    "internalType": "string",
                    "name": "message",
                    "type": "string"
                }
            ],
            "name": "Escrow__OnlyBuyer",
            "type": "error"
        },
        {
            "inputs": [
                {
                    "internalType": "string",
                    "name": "message",
                    "type": "string"
                }
            ],
            "name": "Escrow__OnlySeller",
            "type": "error"
        },
        {
            "inputs": [
                {
                    "internalType": "uint256",
                    "name": "_nftId",
                    "type": "uint256"
                }
            ],
            "name": "depositDownPayment",
            "outputs": [],
            "stateMutability": "payable",
            "type": "function"
        },
        {
            "inputs": [],
            "name": "getBalance",
            "outputs": [
                {
                    "internalType": "uint256",
                    "name": "",
                    "type": "uint256"
                }
            ],
            "stateMutability": "view",
            "type": "function"
        },
        {
            "inputs": [
                {
                    "internalType": "uint256",
                    "name": "index",
                    "type": "uint256"
                }
            ],
            "name": "getBuyer",
            "outputs": [
                {
                    "internalType": "address",
                    "name": "",
                    "type": "address"
                }
            ],
            "stateMutability": "view",
            "type": "function"
        },
        {
            "inputs": [
                {
                    "internalType": "uint256",
                    "name": "index",
                    "type": "uint256"
                }
            ],
            "name": "getEscrowAmount",
            "outputs": [
                {
                    "internalType": "uint256",
                    "name": "",
                    "type": "uint256"
                }
            ],
            "stateMutability": "view",
            "type": "function"
        },
        {
            "inputs": [],
            "name": "getInspector",
            "outputs": [
                {
                    "internalType": "address",
                    "name": "",
                    "type": "address"
                }
            ],
            "stateMutability": "view",
            "type": "function"
        },
        {
            "inputs": [],
            "name": "getLender",
            "outputs": [
                {
                    "internalType": "address",
                    "name": "",
                    "type": "address"
                }
            ],
            "stateMutability": "view",
            "type": "function"
        },
        {
            "inputs": [],
            "name": "getNFTAddress",
            "outputs": [
                {
                    "internalType": "address",
                    "name": "",
                    "type": "address"
                }
            ],
            "stateMutability": "view",
            "type": "function"
        },
        {
            "inputs": [
                {
                    "internalType": "uint256",
                    "name": "index",
                    "type": "uint256"
                }
            ],
            "name": "getPurchasedPrice",
            "outputs": [
                {
                    "internalType": "uint256",
                    "name": "",
                    "type": "uint256"
                }
            ],
            "stateMutability": "view",
            "type": "function"
        },
        {
            "inputs": [],
            "name": "getSeller",
            "outputs": [
                {
                    "internalType": "address",
                    "name": "",
                    "type": "address"
                }
            ],
            "stateMutability": "view",
            "type": "function"
        },
        {
            "inputs": [
                {
                    "internalType": "uint256",
                    "name": "index",
                    "type": "uint256"
                }
            ],
            "name": "isNFTListed",
            "outputs": [
                {
                    "internalType": "bool",
                    "name": "",
                    "type": "bool"
                }
            ],
            "stateMutability": "view",
            "type": "function"
        },
        {
            "inputs": [
                {
                    "internalType": "uint256",
                    "name": "_nftId",
                    "type": "uint256"
                },
                {
                    "internalType": "address",
                    "name": "_buyer",
                    "type": "address"
                },
                {
                    "internalType": "uint256",
                    "name": "_purchasePrice",
                    "type": "uint256"
                },
                {
                    "internalType": "uint256",
                    "name": "_escrowAmount",
                    "type": "uint256"
                }
            ],
            "name": "list",
            "outputs": [],
            "stateMutability": "payable",
            "type": "function"
        },
        {
            "stateMutability": "payable",
            "type": "receive"
        }
    ],
    "bytecode": "61010060405234801561001157600080fd5b5060405161077c38038061077c8339810160408190526100309161006a565b6001600160a01b0393841660805291831660a052821660c0521660e0526100c9565b6001600160a01b038116811461006757600080fd5b50565b6000806000806080858703121561008057600080fd5b845161008b81610052565b602086015190945061009c81610052565b60408601519093506100ad81610052565b60608601519092506100be81610052565b939692955090935050565b60805160a05160c05160e05161066c6101106000396000818161024001526104cf015260008181610286015261043f0152600061019a015260006101cd015261066c6000f3fe6080604052600436106100a05760003560e01c8063859e6e3411610064578063859e6e341461018b5780639861f3e5146101be578063adb78eac146101f1578063b961847814610231578063c9f0ec7e14610264578063dbd0e1b61461027757600080fd5b806312065fe0146100ac5780631f260c04146100ce578063430fc288146100fb578063451ee191146101105780635bf608b81461013d57600080fd5b366100a757005b600080fd5b3480156100b857600080fd5b50475b6040519081526020015b60405180910390f35b3480156100da57600080fd5b506100bb6100e936600461058b565b60009081526001602052604090205490565b61010e61010936600461058b565b6102aa565b005b34801561011c57600080fd5b506100bb61012b36600461058b565b60009081526002602052604090205490565b34801561014957600080fd5b5061017361015836600461058b565b6000908152600360205260409020546001600160a01b031690565b6040516001600160a01b0390911681526020016100c5565b34801561019757600080fd5b507f0000000000000000000000000000000000000000000000000000000000000000610173565b3480156101ca57600080fd5b507f0000000000000000000000000000000000000000000000000000000000000000610173565b3480156101fd57600080fd5b5061022161020c36600461058b565b60009081526020819052604090205460ff1690565b60405190151581526020016100c5565b34801561023d57600080fd5b507f0000000000000000000000000000000000000000000000000000000000000000610173565b61010e6102723660046105bc565b610434565b34801561028357600080fd5b507f0000000000000000000000000000000000000000000000000000000000000000610173565b604051630b7ec11760e31b81526004810182905281903090635bf608b890602401602060405180830381865afa1580156102e8573d6000803e3d6000fd5b505050506040513d601f19601f8201168201806040525081019061030c91906105f9565b6001600160a01b0316336001600160a01b031614610380576040516368910a3560e11b815260206004820152602560248201527f4f6e6c7920627579657220697320616c6c6f77656420746f206d616b652064656044820152641c1bdcda5d60da1b60648201526084015b60405180910390fd5b60405163451ee19160e01b815260048101839052309063451ee19190602401602060405180830381865afa1580156103bc573d6000803e3d6000fd5b505050506040513d601f19601f820116820180604052508101906103e0919061061d565b34101561043057604051637579e84b60e01b815260206004820152601d60248201527f4465706f73697420616d6f756e74206e6f742073756666696369656e740000006044820152606401610377565b5050565b336001600160a01b037f000000000000000000000000000000000000000000000000000000000000000016146104ad57604051630304e6c160e41b815260206004820152601d60248201527f4f6e6c792073656c6c65722063616e206c6973742074686973206e66740000006044820152606401610377565b6040516323b872dd60e01b8152336004820152306024820152604481018590527f00000000000000000000000000000000000000000000000000000000000000006001600160a01b0316906323b872dd90606401600060405180830381600087803b15801561051b57600080fd5b505af115801561052f573d6000803e3d6000fd5b505050600094855250602084815260408086208054600160ff19909116811790915582528086209390935560028152828520919091556003905290912080546001600160a01b0319166001600160a01b03909216919091179055565b60006020828403121561059d57600080fd5b5035919050565b6001600160a01b03811681146105b957600080fd5b50565b600080600080608085870312156105d257600080fd5b8435935060208501356105e4816105a4565b93969395505050506040820135916060013590565b60006020828403121561060b57600080fd5b8151610616816105a4565b9392505050565b60006020828403121561062f57600080fd5b505191905056fea2646970667358221220b74fdbbf8d434df34bef89e99430cd164c58046383407cbe8797d7af82a0e29a64736f6c63430008130033",
    "sourcePath": "/Users/softwareking/Documents/projects/blockchain/Real_Estate/contracts/Escrow.sol",
    "compiler": {
        "name": "solc",
        "version": "0.8.19+commit.7dd6d404"
    },
    "functionHashes": {
        "depositDownPayment(uint256)": "430fc288",
        "getBalance()": "12065fe0",
        "getBuyer(uint256)": "5bf608b8",
        "getEscrowAmount(uint256)": "451ee191",
        "getInspector()": "859e6e34",
        "getLender()": "9861f3e5",
        "getNFTAddress()": "b9618478",
        "getPurchasedPrice(uint256)": "1f260c04",
        "getSeller()": "dbd0e1b6",
        "isNFTListed(uint256)": "adb78eac",
        "list(uint256,address,uint256,uint256)": "c9f0ec7e"
    },
    "gasEstimates": {
        "creation": {
            "codeDepositCost": "328800",
            "executionCost": "infinite",
            "totalCost": "infinite"
        },
        "external": {
            "depositDownPayment(uint256)": "infinite",
            "getBalance()": "173",
            "getBuyer(uint256)": "2566",
            "getEscrowAmount(uint256)": "2494",
            "getInspector()": "infinite",
            "getLender()": "infinite",
            "getNFTAddress()": "infinite",
            "getPurchasedPrice(uint256)": "2450",
            "getSeller()": "infinite",
            "isNFTListed(uint256)": "2497",
            "list(uint256,address,uint256,uint256)": "infinite"
        }
    }
}